:020000040800F2
:1000000000000120C1110008E5010008F10100080D
:10001000F9010008010200080902000800000000C0
:100020000000000000000000000000001D020008A9
:100030001102000800000000290200083502000833
:10004000410200084D02000859020008650200083C
:10005000710200087D02000889020008950200086C
:10006000A1020008AD020008B9020008C50200089C
:10007000D1020008DD020008E9020008F5020008CC
:10008000010300080D0300081903000825030008F8
:10009000310300083D030008490300085503000828
:1000A000610300086D030008790300088503000858
:1000B000910300089D030008A9030008B503000888
:1000C000C1030008CD030008D9030008E5030008B8
:1000D000F1030008FD0300080904000815040008E6
:1000E000210400082D040008390400080000000065
:1000F0000000000000000000000000000000000000
:0C01000000000000000000005FF808F1A3
:10010C0080B584B000AF00237B600023FB73002319
:10011C00BB7300F091F900F0B5FB00F07DFB7B6840
:10012C00002B18D07B68294A934214D8012000F088
:10013C005FFA002000F074FABB7B002B02D1FB7B32
:10014C000133FB730123BB73FB7B632B02D90023AD
:10015C00FB7337E036E07B681C4A93422CD97B68F2
:10016C001B4A934228D8002000F042FA012000F0EC
:10017C0057FABB7B012B1CD1FB7B16481946154A41
:10018C0000F044FFB86000F047FB6F2035210022DF
:10019C0000F02AFCBB681B7818460521002200F0F1
:1001AC0023FCBB6801331B7818461D21002200F08C
:1001BC001BFC0023BB7305E07B68054A934201D905
:1001CC0000237B607B6801337B60A8E7FEFF0400A3
:1001DC00FEFF06002418000880B400AFBD465DF891
:1001EC00047B704780B400AFFEE700BF80B400AF63
:1001FC00FEE700BF80B400AFFEE700BF80B400AFE5
:10020C00FEE700BF80B400AFBD465DF8047B7047CD
:10021C0080B400AFBD465DF8047B704780B400AF7E
:10022C00BD465DF8047B704780B400AFBD465DF8F9
:10023C00047B704780B400AFBD465DF8047B70470B
:10024C0080B400AFBD465DF8047B704780B400AF4E
:10025C00BD465DF8047B704780B400AFBD465DF8C9
:10026C00047B704780B400AFBD465DF8047B7047DB
:10027C0080B400AFBD465DF8047B704780B400AF1E
:10028C00BD465DF8047B704780B400AFBD465DF899
:10029C00047B704780B400AFBD465DF8047B7047AB
:1002AC0080B400AFBD465DF8047B704780B400AFEE
:1002BC00BD465DF8047B704780B400AFBD465DF869
:1002CC00047B704780B400AFBD465DF8047B70477B
:1002DC0080B400AFBD465DF8047B704780B400AFBE
:1002EC00BD465DF8047B704780B400AFBD465DF839
:1002FC00047B704780B400AFBD465DF8047B70474B
:10030C0080B400AFBD465DF8047B704780B400AF8D
:10031C00BD465DF8047B704780B400AFBD465DF808
:10032C00047B704780B400AFBD465DF8047B70471A
:10033C0080B400AFBD465DF8047B704780B400AF5D
:10034C00BD465DF8047B704780B400AFBD465DF8D8
:10035C00047B704780B400AFBD465DF8047B7047EA
:10036C0080B400AFBD465DF8047B704780B400AF2D
:10037C00BD465DF8047B704780B400AFBD465DF8A8
:10038C00047B704780B400AFBD465DF8047B7047BA
:10039C0080B400AFBD465DF8047B704780B400AFFD
:1003AC00BD465DF8047B704780B400AFBD465DF878
:1003BC00047B704780B400AFBD465DF8047B70478A
:1003CC0080B400AFBD465DF8047B704780B400AFCD
:1003DC00BD465DF8047B704780B400AFBD465DF848
:1003EC00047B704780B400AFBD465DF8047B70475A
:1003FC0080B400AFBD465DF8047B704780B400AF9D
:10040C00BD465DF8047B704780B400AFBD465DF817
:10041C00047B704780B400AFBD465DF8047B704729
:10042C0080B400AFBD465DF8047B704780B400AF6C
:10043C00BD465DF8047B704780B500AF00F004F852
:10044C0000F0AEF880BD00BF80B582B000AF0023D5
:10045C00FB7100F04BF800F077F80346FB71FB7969
:10046C00002B3BD01F4B6FF02D021A601E4A1E4B07
:10047C005B6843F4E01353601B4A1B4B5B6853608F
:10048C00194A194B5B6843F480335360164A164B78
:10049C005B685360144A144B5B6843F4806353608D
:1004AC00114A114B5B6853600F4A0F4B1B6843F0AA
:1004BC008073136000BF0C4B1B6803F00073002BA0
:1004CC00F9D0094A084B5B6843F00203536000BF44
:1004DC00054B5B6803F00803002BF9D00837BD46C9
:1004EC0080BD00BF002002400010024080B400AF6D
:1004FC00134A134B1B6843F0010313601049104B54
:10050C005A68104B13404B600D4A0D4B1B6823F07F
:10051C00847323F480331360094A094B1B6823F45A
:10052C0080231360064A064B5B6823F4FE0353607A
:10053C00034B00229A60BD465DF8047B704700BFF8
:10054C00001002400000FFF880B483B000AF00231D
:10055C007B60124A114B1B6823F4802313600F4AF3
:10056C000E4B1B6843F48033136009E07B68013346
:10057C007B607B684FF6FE72934201D9002306E044
:10058C00064B1B6803F40033002BEFD001231846F5
:10059C000C37BD465DF8047B704700BF001002406D
:1005AC0080B400AF104A104B9B6943F04003936139
:1005BC000E4A0E4B5B6843F0807353600B4A0B4B37
:1005CC005B6823F080635360084A084B5B6843F018
:1005DC0080535360054A054B5B6823F0804353609E
:1005EC00BD465DF8047B70470010024000180140C6
:1005FC0080B483B000AF0346FB71FB79002B04D0B1
:10060C00064B4FF480421A6103E0044B4FF48042D6
:10061C005A610C37BD465DF8047B704700180140E9
:10062C0080B483B000AF0346FB71FB79002B04D080
:10063C00064B4FF400421A6103E0044B4FF40042A6
:10064C005A610C37BD465DF8047B704700180140B9
:10065C0080B400AF064B9B6803F40053002B01D011
:10066C00012300E000231846BD465DF8047B70476B
:10067C000010014080B400AF064B9B6803F00103EF
:10068C00002B01D0012300E000231846BD465DF885
:10069C00047B70470008014080B485B000AF7860DF
:1006AC000023BB600CE00023FB6003E000BFFB6891
:1006BC000133FB60FB68092BF8DDBB680133BB60C1
:1006CC00BA687B689A42EEDB1437BD465DF8047B52
:1006DC00704700BF80B483B000AF7860034A7B687A
:1006EC0013610C37BD465DF8047B70470010014068
:1006FC0080B483B000AF7860034A7B6853610C37D9
:10070C00BD465DF8047B70470010014080B584B095
:10071C0000AF0346FB711020FFF7EAFF0120FFF743
:10072C00BBFF0023FB731CE0FB795BB2002B03DAED
:10073C002020FFF7CFFF02E02020FFF7D9FF012098
:10074C00FFF7AAFF1020FFF7C5FF0120FFF7A4FF5A
:10075C001020FFF7CDFFFB795B00FB71FB7B0133B6
:10076C00FB73FB7B072BDFD91037BD4680BD00BF69
:10077C0080B582B000AF0346FB714FF40060FFF709
:10078C00B7FF4020FFF7A6FFFB791846FFF7BEFF27
:10079C004FF40060FFF79EFF0837BD4680BD00BFD9
:1007AC0080B582B000AF0346FB714FF40060FFF7D9
:1007BC009FFF4020FFF79CFFFB791846FFF7A6FF31
:1007CC004FF40060FFF786FF0837BD4680BD00BFC1
:1007DC0080B582B000AF03460A46FB711346BB716D
:1007EC00FB7963F07F03DBB21846FFF7D9FFBB79C7
:1007FC0043F04003DBB21846FFF7D2FF044ABB7943
:10080C001370044AFB7913700837BD4680BD00BFD6
:10081C00000000200100002080B582B000AF002055
:10082C000021FFF7D5FF00237B601EE000233B6017
:10083C0015E00020FFF79CFF7B68052B0CDC3B6868
:10084C00532B09DC0E497B68542202FB03F23B68F4
:10085C0013440B4400221A703B6801333B603B6825
:10086C00592BE6DD7B6801337B607B68072BDDDD74
:10087C0000200021FFF7ACFF0837BD4680BD00BF4C
:10088C000400002080B500AF3B4A3B4B9B6943F012
:10089C0010039361394A394B1B6843F4803313605E
:1008AC00364A364B1B6823F480231360334A334B90
:1008BC001B6843F480131360304A304B1B6823F4DD
:1008CC00800313602D4A2D4B1B6843F0807313601B
:1008DC002A4A2A4B1B6823F080631360274A274B54
:1008EC001B6843F080531360244A244B1B6823F08D
:1008FC0080431360214A214B5B6843F4805353605F
:10090C001E4A1E4B5B6823F4804353608020FFF724
:10091C00E1FE0120FFF7C0FE8020FFF7E9FE012079
:10092C00FFF7BAFE8020FFF7D5FE0120FFF7B4FEDB
:10093C002120FFF735FF0520FFF732FFC820FFF716
:10094C002FFF0620FFF72CFF1420FFF729FF202094
:10095C00FFF726FF0120FFF723FF0C20FFF720FFF6
:10096C008020FFF71DFF0520FFF71AFF4020FFF73F
:10097C0017FFFFF751FF80BD00100240001001402F
:10098C0080B582B000AF00200021FFF721FF0023CB
:10099C007B601DE07B68DBB200201946FFF718FF77
:1009AC0000233B600EE00F497B68542202FB03F2EC
:1009BC003B6813440B441B781846FFF7D9FE3B6881
:1009CC0001333B603B68532BEDDD7B6801337B606F
:1009DC007B68062BDEDD00200021FFF7F9FE0837CF
:1009EC00BD4680BD04000020F0B585B000AF0346C5
:1009FC00FB710B46BB7113467B71FB796F2B02D1DC
:100A0C000A23FB7103E0FB7903F00F03FB71002356
:100A1C00FB7358E07A79FB7B1344DBB2BA7910464E
:100A2C001946FFF7D5FE0023BB7346E0294B1B7814
:100A3C009E46294B1B781A46BB7BD018254B1B783E
:100A4C001C46254B1B781A46BB7B13442349542266
:100A5C0002FB04F213440B441C78F979FB7BBD7B3D
:100A6C001F4E1A4652001A44D3001A460B461B015D
:100A7C005B1ADB00134433442B441B782343D9B259
:100A8C00164A542303FB0EF3034413440A461A700C
:100A9C00104B1B781846104B1B781A46BB7B134423
:100AAC000E49542202FB00F213440B441B781846E7
:100ABC00FFF75EFEBB7B0133BB73BB7B172BB5D93A
:100ACC00FB7B0133FB73FB7B042BA3D91437BD4693
:100ADC00F0BD00BF00000020010000200400002039
:100AEC002818000880B590B000AF78613961FA60C1
:100AFC00BB600023FB630023BB6300237B630023E9
:100B0C00BB610023FB610023BB6307E0FA68BB6B8E
:100B1C00134400221A70BB6B0133BB63BB6B2F2BCE
:100B2C00F4D90023BB6308E007F12002BB6B13442C
:100B3C0000221A70BB6B0133BB63BB6B132BF3D955
:100B4C00786900F0D5F9F8630023BB630DE0BB6B4B
:100B5C002F2B07D8FA68BB6B13447969BA6B0A441C
:100B6C0012781A70BB6B0133BB63BA6BFB6B9A4286
:100B7C00EDD397F84830002B10D107F11803184625
:100B8C00B96800F07FF807F120031846002107F13F
:100B9C0018030CCB00F0A8F8F86334E097F8483051
:100BAC00012B16D13B461846B96800F06BF807F1DB
:100BBC0018033A4692E8030083E8030007F1200388
:100BCC001846012107F118030CCB00F08DF8F863DF
:100BDC0019E097F84830022B15D13B461846B968F6
:100BEC0000F050F807F118033A4692E8030083E846
:100BFC00030007F120031846022107F118030CCB60
:100C0C0000F072F8F86300237B6315E07A6BBB6B22
:100C1C0013442F2B0DD87B6B132B0AD87A6BBB6B21
:100C2C001344FA68134407F120017A6B0A441278D2
:100C3C001A707B6B01337B637A6BFB6B9A42E5D347
:100C4C00BA6B7B6B1344BB63386900F051F9F863E2
:100C5C0000237B630FE0BB6B2F2B09D8BA6B7B6B2C
:100C6C001344FA68134439697A6B0A4412781A707F
:100C7C007B6B01337B637A6BFB6B9A42EBD3403714
:100C8C00BD4680BD80B584B000AF7860396000236C
:100C9C00BB600023FB60386800F094FD0346BB602A
:100CAC00BB68184600F0A0FB03463868194600F0F4
:100CBC00BBFA03463B6038680A4900F007FC034660
:100CCC00184600F07FFD0346FB607B681A4607F16F
:100CDC00080393E8030082E8030078681037BD46E8
:100CEC0080BD00BF00007A4480B586B000AFF860CC
:100CFC000846394681E80C000346FB7200237B61F1
:100D0C00FB7A002B06D13B681846F96800F040F8D6
:100D1C00786138E0FB7A012B1AD13B681846F968E8
:100D2C0000F036F87861FA687B6913442C221A704B
:100D3C007B6901337B617968FA687B6913440846E7
:100D4C00194600F025F802467B6913447B611AE0D2
:100D5C00FB7A022B17D17B695A1C7A61FA6813440F
:100D6C0030221A707B695A1C7A61FA681344782213
:100D7C001A703B681846F96800F0D0F803461A461A
:100D8C007B6913447B617B6918461837BD4680BD6F
:100D9C0080B48FB000AF786039600023BB62002351
:100DAC007B6200233B6307F1080300221A600433C3
:100DBC0000221A60043300221A60043300221A60E5
:100DCC00043300221A60043300221A600433002218
:100DDC001A600433434BBB60434BFB6042F210730D
:100DEC003B614FF47A737B616423BB610A23FB6123
:100DFC0000237B630023FB6200237B6207E0BB6A5A
:100E0C003A68134400221A707B6A01337B627B6A56
:100E1C00132BF4D900237B623CE07B6A9B0007F127
:100E2C003802134453F8303C7A68B2FBF3F33B635B
:100E3C003B6B092B2BD87B6B002B04D13B6B002B12
:100E4C0001D001237B637B6B012B20D17B6A9B0040
:100E5C0007F13802134453F8303C3A6B02FB03F3AE
:100E6C007A68D31A7B60BB6A132B0FD8BB6A5A1CE7
:100E7C00BA623A681A4439680B4419783B6BDBB296
:100E8C000B44DBB23033DBB2137000E005E07B6A5D
:100E9C0001337B627B6A052BBFD97A68134BA3FBAA
:100EAC000213D9080B469B000B445B00D31A3B631F
:100EBC00BB6A0133FB62BB6A132B0CD8BB6A3A6862
:100ECC001A4439680B4419783B6BDBB20B44DBB228
:100EDC003033DBB21370FB6A18463C37BD465DF805
:100EEC00047B704740420F00A0860100CDCCCCCCD7
:100EFC0080B485B000AF78600023FB60FB680133E1
:100F0C00FB607A68FB6813441B78002BF6D1FB68F6
:100F1C0018461437BD465DF8047B704780B485B025
:100F2C0000AF7860396000233B730023FB7302230E
:100F3C00BB7300237B730023FB735DE0FB7BC3F16E
:100F4C000303DB007A6822FA03F33B73BB7B122B9F
:100F5C004FD83B7B0F2B01D901237B733B7B9F2B02
:100F6C000FD87B7B012B18D1BB7B5A1CBA731A464A
:100F7C003B6813443A7B1209D2B23032D2B21A70A7
:100F8C000BE0BB7B5A1CBA731A463B6813443A7B82
:100F9C001209D2B23732D2B21A703B7B03F00F0374
:100FAC00DBB2002B01D001237B733B7B03F00F03DF
:100FBC00DBB2092B10D87B7B012B1AD1BB7B5A1CC3
:100FCC00BA731A463B6813443A7B02F00F02D2B252
:100FDC003032D2B21A700CE0BB7B5A1CBA731A4670
:100FEC003B6813443A7B02F00F02D2B23732D2B2D2
:100FFC001A70FB7B0133FB73FB7B032B9ED9BB7BF2
:10100C0018461437BD465DF8047B704780B491B028
:10101C0000AFF860B9607A600023FB630023BB6308
:10102C0000233B6307F1140300221A6004330022EF
:10103C001A60043300221A60043300221A6004334D
:10104C0000221A60043300221A60043300221A6052
:10105C000433544B7B61544BBB6142F21073FB6104
:10106C004FF47A733B6264237B620A23BB620023D6
:10107C007B630023FB6307E04C4AFB6B13440022A9
:10108C001A70FB6B0133FB63FB6B122BF4D900233F
:10109C00FB630EE0FB6B122B07D8FB6B5A1CFA633D
:1010AC00FA681178414AD15400E006E0FB6801333C
:1010BC00FB60FB681B78002BECD10023BB633AE090
:1010CC00BB6B9B0007F14002134453F82C3CBA68ED
:1010DC00B2FBF3F33B633B6B092B29D87B6B002BE7
:1010EC0004D13B6B002B01D001237B637B6B012B69
:1010FC001ED1BB6B9B0007F14002134453F82C3CF0
:10110C003A6B02FB03F3BA68D31ABB60FB6B122B6E
:10111C000DD8FB6B5A1CFA63244AD15C3A6BD2B2E1
:10112C000A44D2B23032D1B2204AD15400E005E0A8
:10113C00BB6B0133BB63BB6B052BC1D9BA681C4BB2
:10114C00A3FB0213D9080B469B000B445B00D31A7C
:10115C003B63FB6B122B0CD8FB6B5A1CFA63134AC8
:10116C00D15C3A6BD2B20A44D2B23032D1B20F4A0D
:10117C00D15407E00D4AFB6B134420221A70FB6B11
:10118C000133FB63FB6B122BF4D9FB6B013B074A5E
:10119C000021D154054B18464437BD465DF8047BFD
:1011AC00704700BF40420F00A0860100A40200203F
:1011BC00CDCCCCCC684620F007018D4681B583B0F0
:1011CC0000AF124B7B60124B3B6007E03B681A1D73
:1011DC003A607A68111D796012681A603B680D4A92
:1011EC009342F3D30C4B3B6004E03B681A1D3A600E
:1011FC0000221A603B68094A9342F6D3FEF780FF3F
:10120C000C37BD46BDE8814085467047501D00082F
:10121C00000000200000002000000020D40200206C
:10122C00020120E2000000EA021121E28020B0E17C
:10123C008130B0110300321142CCF01143CCF011CB
:10124C004700000A222CA0E1233C72E0032082C05C
:10125C00011020C0000021C0011020C0003063B27A
:10126C00190053E31EFF2F81020110E3020580E3F6
:10127C00FF04C0E300006012020111E3021581E3D8
:10128C00FF14C1E300106112030032E12E00000ACA
:10129C00012042E2510390E0203063E21113A0E1FF
:1012AC00023100E20100005A001071E20000E0E29D
:1012BC00020550E30B00003A010450E30400003A2D
:1012CC00A000B0E16110A0E1012082E2FE0052E337
:1012DC003800002A020151E3820BA0E00100C00398
:1012EC00030080E11EFF2FE18110B0E10000A0E0BF
:1012FC00020510E3012042E2F5FFFF1A20C6B0E11F
:10130C000006A0010C204202FF0810E30004A0011B
:10131C00082042020F0610E30002A0010420420242
:10132C00030510E30001A00102204202020550E374
:10133C008000A0310020D2E2820B80A0002062B29B
:10134C00030080A1300283B11EFF2FE1000032E3C5
:10135C00021521E202052002012082020130431213
:10136C00CAFFFFEA8130A0E142CCF0E143CCF0119E
:10137C001300000A030032E10200000A000032E30D
:10138C000100A0011EFF2FE1010030E10000A013BD
:10139C001EFF2F11FF0412E30200001A8000B0E1BF
:1013AC00020180231EFF2FE1022492E2020580320B
:1013BC001EFF2F31023100E27F0483E3020580E33C
:1013CC001EFF2FE1422CF0E10100A011433CF00183
:1013DC000010A0118024B0E18134B0010100300173
:1013EC00010580131EFF2FE10030A0E3010000EA8D
:1013FC00023110E20000604200C0B0E11EFF2F017C
:10140C004B3483E30010A0E10000A0E30F0000EADE
:10141C00012090E11EFF2F010030A0E3050000EA3F
:10142C00012090E11EFF2F01023111E20100005A50
:10143C00000070E20010E1E201C0B0E100C0A001C8
:10144C000010A0010000A0035B3483E301324302CF
:10145C00023543E21720A0E301085CE32CC8A0216D
:10146C0010204222010C5CE32CC4A0210820422253
:10147C0010005CE32CC2A0210420422204005CE397
:10148C0002204222AC204230AC2152E0823B43E0AD
:10149C00060000BA113283E010C2A0E1202062E203
:1014AC0002015CE33002A3E00100C0031EFF2FE148
:1014BC00202082E211C2A0E1202062E28C0090E1A7
:1014CC003102A3E0AC0FC0011EFF2FE1FFC0A0E36F
:1014DC00A02B1CE0A13B1C100C0032110C00331192
:1014EC003E00000A032082E001C020E08004B0E14D
:1014FC008114B0111000000A0233A0E3A00283E1B2
:10150C00A11283E1903181E002010CE2020551E36A
:10151C008110A031A31F81318330A031010080E103
:10152C007F20C2E2FD0052E30F00008A020153E368
:10153C00820BA0E00100C0031EFF2FE1000030E38E
:10154C0002C10CE28114A001A0048CE1A10480E191
:10155C007F2052E2FF3072C2820B80C11EFF2FC16E
:10156C00020580E30030A0E3012052E2350000CAFE
:10157C00190072E3020100D21EFF2FD1002062E29B
:10158C008010B0E13112A0E1202062E210C2A0E193
:10159C006100B0E10000A0E28C3093E1AC0FC0011F
:1015AC001EFF2FE1000032E302C100E28000A00127
:1015BC000205100301204202FBFFFF0A0C0080E130
:1015CC00000033E302C101E28110A0010205110306
:1015DC0001304302FBFFFF0A0C1081E1C0FFFFEA60
:1015EC00A13B0CE00C0032E10C0033110500000AA9
:1015FC0002C1D0E302C1D113E9FFFF1A010020E0C0
:10160C00020100E21EFF2FE1000030E30201301363
:10161C000100A00100003113020131130D00000A7A
:10162C000C0032E10100001A8024B0E10900001A1C
:10163C000C0033E10200001A8134B0E10100A0116A
:10164C000400001A010020E0020100E27F0480E3A4
:10165C00020580E31EFF2FE17F0480E3030580E396
:10166C001EFF2FE1FFC0A0E3A02B1CE0A13B1C1030
:10167C000C0032110C0033113A00000A032042E036
:10168C0001C020E08114B0E18004A0E11C00000A3C
:10169C000132A0E3211283E1203283E102010CE24A
:1016AC00010053E18330A0317D20A2E202C5A0E30A
:1016BC00010053E1013043200C008021A10053E1D3
:1016CC00A1304320AC008021210153E12131432082
:1016DC002C018021A10153E1A1314320AC018021D7
:1016EC000332B0E12CC2B011F0FFFF1AFD0052E33F
:1016FC009DFFFF8A010053E1820BA0E00100C003B3
:10170C001EFF2FE102C10CE2A0048CE17F2092E2CB
:10171C00FF3072C2820B80C11EFF2FC1020580E315
:10172C000030A0E3012052E28FFFFFEA000032E319
:10173C0002C100E28000A001020510030120420258
:10174C00FBFFFF0A0C0080E1000033E302C101E261
:10175C008110A0010205110301304302FBFFFF0AB7
:10176C000C1081E1C4FFFFEAA13B0CE00C0032E15C
:10177C000500001A8024B0E1B6FFFF1A0C0033E11B
:10178C00AFFFFF1A0100A0E1B2FFFFEA0C0033E14A
:10179C000300001A8134B0E197FFFF0A0100A0E1B9
:1017AC00ACFFFFEA02C1D0E302C1D113DEFFFF1A86
:1017BC000221D0E3A2FFFF1A0231D1E38EFFFF1A00
:1017CC00A4FFFFEA8020B0E10800002A7F0452E366
:1017DC000600003A9E30A0E3222C53E00500004A9C
:1017EC000034A0E1023183E33302A0E11EFF2FE1BC
:1017FC000000A0E31EFF2FE1610072E30100001A5C
:10180C008024B0E10100001A0000E0E31EFF2FE18C
:10181C000000A0E31EFF2FE1000000000000C0F05C
:10182C00F8FCFE7E3F1F1F1F1F3F7FFEFCF8E0C031
:10183C0000000000E0FFFFFFFF1F010000000000A0
:10184C00000000010FFFFFFFFFF80000FFFFFFFF8C
:10185C00FF000000000000000000000080FFFFFF00
:10186C00FF7F0000003FFFFFFFFFF08080000000C3
:10187C0080C0E0F8FFFFFF3F0F00000000000001F8
:10188C0003070F0F1F1F1F1F0F0F0F070301000070
:10189C0000000000C0E0E0F0F8FCFEFEFFFFFF00DF
:1018AC000000000000000000000000000103030322
:1018BC000100FFFFFFFFFF00000000000000000020
:1018CC00000000000000000000FEFFFFFFFF010011
:1018DC00000000000000000000000000008080807C
:1018EC0080FFFFFFFFFF8080808000000000000071
:1018FC0000000000070F0F0F0F0F0F0F0F0F0F0F30
:10190C000F0F07000000000000000000C0E0F0F81E
:10191C00FCFC7E3E3F1F1F1F1F3F3F7EFEFCF8F06E
:10192C00E0000000010303010100000000000000C2
:10193C0080C0E0F8FFFFFF3F0F000000000080C0F8
:10194C00E0E0F0F8FC7C3E1F1F0F070703010000CE
:10195C0000000000F8FEFFFFFF8F838080C0C0C036
:10196C00C0C0C0C0C0C0C08000000000070F0F0F77
:10197C000F0F0F070707070707070707070F0F0FBB
:10198C000700000070F8FC7C7E3E3F1F1F1F1F1FCE
:10199C003F3E7EFEFCF8F0C000000000000000009E
:1019AC00008080C0C0C0C0E0E0F0F8FFFF7F3F0FB8
:1019BC0000000000000000000307070707070F0FD7
:1019CC000F1F3FFEFEFCF8F0C0000000F8F8F8E036
:1019DC00C0800000000000008080C0E0FFFFFF7F9F
:1019EC001F000000010307070F0F1F1F1F1F1F1FE2
:1019FC001F0F0F070703010000000000000000008C
:101A0C00000000000000C0E0F8FC7EFFFFFFFFFEBE
:101A1C00000000000000000080E0F0FCFE7F3F0FA3
:101A2C00070100FFFFFFFFFF00000000C0F0FCFFFC
:101A3C00FFDFCFC3C1C0C0C0C0C0C0FFFFFFFFFFEE
:101A4C00C0C0800001030303070707070707070748
:101A5C00070707FFFFFFFFFF070703000000000059
:101A6C0000000000000000000000000F1F1F1F0FEF
:101A7C0000000000FEFFFFFFFF1F1F1F1F1F1F1F87
:101A8C001F1F1F1F1F1F1F0F0E000000FFFFFFFF58
:101A9C00F1F0F8F8FC7C7C7C7C7C7CFCF8F8F0E0C9
:101AAC00C0000000070F0F0F07030100000000002B
:101ABC000000000001FFFFFFFFFC0000E0F0F0C0A1
:101ACC0080800000000000008080C0E0F0FFFFFF7D
:101ADC007F0700000103070F0F1F1F1F1F1F1F1F72
:101AEC001F0F0F0F07030301000000000000000090
:101AFC000000C0E0F0F8FCFE7E3F1F060000000076
:101B0C00000000000080F0FCFEFF7F9F8783C1C0B7
:101B1C00C0C0C0C08080000000000000FCFFFFFFC0
:101B2C00FF1F0F0F070707070707070F1F3FFFFFD1
:101B3C00FEFCE0000F7FFFFFFFF8E080800000005C
:101B4C0000008080C0F0FFFFFF7F1F00000001033A
:101B5C00070F0F1F1F1F1F1F1F1F1F0F0F0707032D
:101B6C00010000000E1F1F1F1F1F1F1F1F1F1F1F05
:101B7C001F9FDFFFFFFFFF7F3F1F070000000000DC
:101B8C000000000000C0F0FCFEFF7F1F07010000FA
:101B9C0000000000000000000080E0FCFFFF7F1F41
:101BAC00070100000000000000000000000080F0B1
:101BBC00FCFFFF7F0F03000000000000000000008E
:101BCC0000000000000E1F1F1F0F0100000000008E
:101BDC0000000000000000000000000080E0F0F8B1
:101BEC00FCFE3E3E1F1F1F1F1F1F1F3F7EFEFCFCE7
:101BFC00F0C000001F7FFFFFFFF0F0E0E0C0C0C0AE
:101C0C00C0E0E0F0F8FF7F7F3F0F0000C0F8FCFF62
:101C1C00FF3F1F1F0F0F07070F0F0F1F3FFFFEFC8C
:101C2C00F0C00000FFFFFFFFE0C08080000000005C
:101C3C0000000080E0FFFFFFFF3F000000030707EC
:101C4C000F0F1F1F1F1F1F1F1F1F1F0F0F0F07031C
:101C5C0001000000C0F8FCFEFE3F1F1F0F0F0F0F0E
:101C6C001F1F1F3FFEFEFCF8F0800000FFFFFFFF70
:101C7C00C0000000000000000000000000FFFFFF9B
:101C8C00FFFF000001070F1F3F3F3E7E7C7C7C7CEA
:101C9C007C3C3E9FFFFFFFFFFF07000000000000A1
:101CAC000000008080C0E0E0F0F8FE7F3F1F0F03D3
:101CBC000000000000000E1E1F1F0F0F0F07070370
:101CCC00010100000000000000000000387CEEC79D
:101CDC00C7EE7C3880E0F0F8FC7E3E1F1F1F3E7E76
:101CEC00FCF87000000000010100F8FEFFFFFF0F80
:101CFC0003000000000000000000000000000000D5
:101D0C000000FFFFFFFFFF000000000000000000CC
:101D1C00000000000000000000001F7FFFFFFFC05C
:101D2C0080000000000000C0E0E0C00000000000E7
:101D3C00000000000103070F1F1F1E1E1E1E0F0FA9
:041D4C000703010088
:040000050800010CE2
:00000001FF
